:020000040800F2
:1000000000000110DD28040811F703083568020814
:100010007D2904087D2904087D29040800000000CA
:100020000000000000000000000000001DF70308B1
:1000300019F703080000000015F70308595C0308CE
:100040007D2904087D2904087D2904087D290408E8
:100050007D2904087D2904087D2904087D290408D8
:100060007D2904087D2904087D290408B10D0408B0
:10007000A10D0408910D0408810D04086D0D0408FC
:10008000590D0408450D04087D2904087D2904083C
:100090007D2904087D2904087D2904087D29040898
:1000A000ED0E0408C50E04089D0E0408150F040883
:1000B000890E0408750E0408610E04087D290408E1
:1000C0007D2904087D2904087D2904087D29040868
:1000D0007D2904087D2904087D2904087D29040858
:1000E0007D2904087D29040819180408110E040844
:1000F000E90D0408C10D0408390E0408310D040887
:100100007D2904087D2904084D0E04087D29040872
:100110007D2904087D2904087D2904087D29040817
:100120001D0D0408090D0408F50C0408E10C040871
:10013000CD0C04087D2904087D2904087D290408C4
:100140007D2904087D2904087D29040869FE030827
:10015000B90C0408A50C0408910C04087D290408B6
:100160007D2904087D2904087D2904087D290408C7
:100170007D2904087D2904087D2904087D290408B7
:080180007D2904087D29040813
:10018800F0B40D6800240CE0BCF1050F18D8A0F1FC
:1001980037030A2B14D104EB840415F8010B03EB85
:1001A8004404A0F13003DEB2092EA0F16107A0F1EA
:1001B800410CF0D9052FE7D8A0F157030A2BEAD054
:1001C8000D601460F0BC7047204B2DE9F0411D68AC
:1001D800064600F10708002406E01B6839469847E0
:1001E8003C444645A4B215D016F8017BA7F17D031F
:1001F800012B28462B684FF07D01EED81B689847E5
:100208002B6887F020011B6828469847E8E7E3B287
:1002180003EB1424FF2CFAD8C4F1FF04E4B2A4F1D0
:100228007D03012B2B6805D9214628461B68BDE8AC
:10023800F041184728461B687D2198472B6884F0B1
:10024800200128461B68BDE8F0411847580E0020D9
:100258000A4A936930B41C6815695D6019810025E4
:10026800611C19609D812070936911691A685A6030
:100278004FF6F67230BC19609A817047580E00200C
:10028800F8B5CE1E0F4606440239421E04464FF604
:10029800FF7312F8015F5B1BB2429BB2F9D1C5191B
:1002A8004354064E1B0A05F8013C14F8011BF0697B
:1002B80039F0DCF8A542F8D1F8B2F8BD580E0020A4
:1002C80010B582B00B4660F05F001A0E08211C14AE
:1002D800ADF802308DF80100002368468DF804401F
:1002E8008DF805208DF80010ADF80630FFF7C8FF2F
:1002F80002B010BD30B5062283B060F05F030D4632
:100308000024114668468DF80130ADF802508DF88A
:100318000020ADF80440FFF7B3FF03B030BD00BFC5
:10032800284A116821F0704323F07F03002B0CBF8B
:10033800012002204B07536848BF0430D90744BF47
:100348000A3080B29A0744BF143080B2D90544BF3E
:10035800283080B25A0744BF643080B2190744BFBE
:10036800C83080B29A0644BF00F5C87080B2D9067A
:1003780044BF00F57A7080B2DA040FD500F5FA5060
:1003880080B2990403D500F51C50103080B29A054C
:100398000AD5A0F5C740403880B2704719050AD57C
:1003A80000F5FA6080B2ECE75B0503D500F59C40E8
:1003B800203080B270475A0644BF00F57A6080B298
:1003C800DFE700BF00000010022805D0A0F10100FF
:1003D800B0FA80F040097047054B93F8283023B9EC
:1003E800044B1868C0F380007047102025F09CBEAD
:1003F800580E00200000001010B53B4C94F8AC30AB
:10040800012B00D010BD94F8AD00022834D0A0F123
:100418000100B0FA80F04009002836D02368002B8C
:10042800F0D1D4F8B020002AECD092F9041094F955
:10043800B4208A4251D094F9C0208A4251D094F90C
:10044800CC208A424BD094F9D8208A4231D1032259
:1004580002EB420204EB8202D2F8BC0048BB14292A
:1004680027D1224B224884F864102021C2F8B830E2
:100478002066C2F8BC101CE094F82830DBB91D4B8C
:100488001868C0F380000028C8D12268002AB9D0B3
:10049800D4F8B8309A4213D0D4F8C4309A420ED067
:1004A800D4F8D0309A4214D0D4F8DC309A4212D022
:1004B8000023236010BD102025F036FEACE7012094
:1004C80000EB4000002104EB8003D162C3E92E1148
:1004D800EEE70220F4E70320F2E71A46B8E7022223
:1004E800B6E70122B4E700BF580E0020B80E00207E
:1004F800F081040800000010014B93F8E4007047F5
:10050800580E00200020704710B5144BD3F8E8307F
:1005180093F88830012B14D0022B09D1104BB3F972
:100528000C3013F1FA0F0FDA0E4B01241C7000E0A7
:100538000124282025F0F8FD08B1644264B2204661
:1005480010BD4FF0FF34F4E7FA2B064BC9BFFF226A
:1005580093F900401A704FF0FF34EAE7580E002074
:10056800000000100000002008B50E2025F0DCFD7A
:1005780000B108BD024B1869C0F3807008BD00BF08
:100588000000001038B504460D460A460068FF21F1
:1005980047F08FFD21682944216038BD026810B5F5
:1005A8007F21541C0460117002680024511C0160F2
:1005B8000E211470FFF7E6FF012010BD00B583B0CF
:1005C8000268084B8188CDF801203222D3F8EC303C
:1005D800ADF805108DF800206846984703B05DF81F
:1005E80004FB00BF580E0020F0B4434D434BC5F840
:1005F800F030C823013885F8F43005F1F50205F22A
:100608002F114D2428E0DCB25BB2002B34DB6300F1
:10061800DCB25BB2002B36DB6400E3B264B2002CC0
:1006280038DB5C00E3B264B2002C3ADB5C00E3B276
:1006380064B2002C3CDB5C00E3B264B2002C3EDB0D
:100648005C00E3B264B2002C4FEA4303B8BF83F006
:10065800D5038A42DCB238D010F8013F02F8013BDA
:10066800634013F0800F4FEA4303CCD083F0D504E6
:1006780063B2002BE4B2CADA640084F0D50463B232
:10068800002BE4B2C8DA630083F0D5035CB2002C17
:10069800DBB2C6DA5B0083F0D5035CB2002CDBB2B8
:1006A800C4DA5B0083F0D5035CB2002CDBB2C2DA9B
:1006B8005B0083F0D5035CB2002CDBB2C0DA5B00D0
:1006C80083F0D5035CB2DBB2BDE70D4E85F82F4150
:1006D800A6F144070FCF0FC60FCF0FC60FCF0FC617
:1006E80097E80F00402785F8304186E80F0085F825
:1006F8007471F0BC704700BF580E0020C83E7BEAFA
:100708008C0F002070B51D4E1D4D96F88001632298
:10071800002139F0C7FBB6F8A43104461948333B29
:1007280080FB0320DB17C3EB20100922002139F0DE
:10073800B9FB6A69C0F10903642000FB0344A4B251
:10074800910744BF04F57A74A4B22B68D20744BF5A
:1007580004F5FA64A4B25B0701D4204670BD1520E5
:1007680025F0E2FC0028F8D06B6813F4016F04BF91
:1007780004F57A64A4B2204670BD00BF580E00206C
:10078800000000101F85EB5110B5044C636943F05D
:100798008003636123F0C8FDE08110BD00000010F4
:1007A80038B5074CB4F8105223F0BEFD854204DD7D
:1007B800044BB4F81022DA8138BDBDE83840E3E7CD
:1007C800580E00200000001008B5FFF7E9FF0020D0
:1007D80008BD00BF70B5214D95F82632EA181C46B1
:1007E80092F828228AB11E4E09225C1CA6FB04132B
:1007F8005B0803EBC303E31AE918DCB291F828128B
:1008080009B1013AF1D185F8264202681549561C0A
:1008180006600C2616700268561C066000261670C4
:100828000268561C066003EB430603EB860314704C
:1008380019440D223CF05CF995F82612084B4A1C25
:10084800A3FB02035B08294403EBC3030120D31A6B
:1008580081F8280285F8263270BD00BF580E0020A6
:10086800398EE3388C1000202DE9F047734C82B0A4
:10087800A269D2E900239B1A002B00AF40F39D80A8
:10088800002384F8BC326E4BE36003F18002A3F1CD
:100898001406C4E9AB33C4E9042603F5C075A561A1
:1008A800C4F84024C4F844240025421800F1010982
:1008B800C4E9019203785909012940F0858003F0C1
:1008C8000F0813F0100310D1002D00F0968094F853
:1008D8005114013101F00F0141457ED01846083707
:1008E80084F8BC32BD46BDE8F087831C6360C31C36
:1008F8004278D4F80CA063608078C6F800A00AEBB0
:1009080002037360424084F85024D4E90192002520
:1009180084F8BC123081B581A2EB0902D5B2A3EBF1
:100928000A0A5FFA8AFAEB1D03F4FC73AA45ADEBD9
:10093800030D67D252464946684647F092FB09EBD9
:100948000A0352463046694663603CF0D1F8E368D2
:10095800306894F850248342C6E9003009D0013346
:10096800336013F8011C984282EA0102F7D184F837
:10097800502463681B78934232D1E368A169C6E9C1
:10098800003023694B60002360690B818B813A1D1D
:1009980084F8BC327B6027F0B1FE013046D07B681A
:1009A8000BB100209847A36922691968012008370C
:1009B800C3E90021BD46BDE8F08794F8BC52002D7C
:1009C8003FF461AF666970E700210846FFF740FC15
:1009D80001200837BD46BDE8F087D6E900A39BE7AC
:1009E8000023B6F9081084F8BC320120FFF730FC68
:1009F80001200837BD46BDE8F08728460837BD46C0
:100A0800BDE8F0872A464946684647F02AFB09EBC5
:100A1800050330462A46694663603CF069F80020C1
:100A2800083784F85184BD46BDE8F087A269136889
:100A38000221581C10601970B1E700BF580E002041
:100A48001811002038B5002025F0B8FC48B10E4C2C
:100A5800B4F8105223F068FC85420CDD01242046CE
:100A680038BD044623F060FCFFF78EFE074B83F881
:100A78002140204638BD054B94F8202283F82120D8
:100A88000224204638BD00BF580E00200000001088
:100A98002DE9F84F8C4D8D4C2B6813F0040300F0B2
:100AA800908094F85834002B5ED1894A94F8903499
:100AB80094F88F7423B194F89134022B00F09A8043
:100AC800B4F8901440F20223994200F0A380002663
:100AD8004FF0000894F8883494F8C81D03EBC3035A
:100AE80002EB8303B3F8569009F4007900294AD041
:100AF80094F9C93D002B46DDB9F1000F43D1D5F873
:100B080014A01AF0100F46D194F89A34002B55D13E
:100B1800082025F009FB00285CD0B9F1000F4DD161
:100B280016B1B8F1000F44D10A2025F0FDFA0028CB
:100B380040F08780132025F0F7FA002800F086801F
:100B48006B681B050ED494F8FC3D002B00F08180E7
:100B5800002E7ED0B8F1000F7BD0002F79D01AF08C
:100B6800010F76D009202AE094F85934002B9CD044
:100B780094F87C34564A03EB430302EB430393F89F
:100B8800303023BB92E7D5F814A000231AF0100FD9
:100B980084F8FC3DB8D0FFF7E7FC8346002842D034
:100BA80094F8FD0D002840F084806B681906ABD5D9
:100BB80005E0002FB8D01AF0010FB5D00720BDE826
:100BC800F88F84F8FC3DFFF7CFFC84F8FD0D042076
:100BD800BDE8F88F132025F0A7FA70B394F8FC3D10
:100BE800002B9AD00A2025F09FFA50BB6B681B0592
:100BF800AED5B7E794F89364002E3FF469AFB4F824
:100C0800901440F2022399424FF001067FF460AF3E
:100C1800B0465FE794F89364002E3FF459AF00267E
:100C28004FF0010856E76B681A067FF56DAF25F09F
:100C3800C5FB0028CBD05846C1E70A2025F074FA36
:100C480020B1002384F8FC3D0420B8E7012384F890
:100C5800FC3D092025F068FA30B16B68980601D48C
:100C680016B10FB10620AAE7232025F05DFA70B16E
:100C7800032025F059FA6B68A8B141F208029A439B
:100C88001FD0DEB1002F0CBF0F20102097E70320E4
:100C980025F04AFA00289AD06B68190701D4002F6A
:100CA80095D005208BE703F4805333438FD00F2072
:100CB80085E7002384F8FD3D0B2080E7DA04ECD5B6
:100CC800F5E710207BE700BF00000010580E002059
:100CD800F08104082DE9F04F304D314EB5F9FE1D75
:100CE800B5F804CEB5F8007E86FB0146CC17C4EBF8
:100CF800A604A4B2A44583B016469A464BD1B5F8CB
:100D0800063EBB4205F6086B33D003680190591CB8
:100D1800342201601A7003680022591C01601A709D
:100D280021463BF015FF019839463BF011FF019829
:100D380047F6FF713BF00CFF019847F6FF713BF057
:100D480007FF019847F6FF713BF002FF019847F64D
:100D5800FF713BF0FDFE01980221FFF713FC012013
:100D6800CBE9006AA5F8044EA5F8067E03B0BDE8F5
:100D7800F08FD5F8083ED5F80C1EB2EB03086AEBE5
:100D88000109084A00234B4508BF4245BDD300204E
:100D980003B0BDE8F08F05F6086BB6E7580E0020E3
:100DA8006766666680841E00604A13692DE9F04113
:100DB800064613F0800000F09A80506910F0020097
:100DC80000F095805A4F97F88011052940F29380DA
:100DD800632900F28E800024DFF860C189B22546BD
:100DE800ACFB0132D20802EB8203A1EB4303E0B271
:100DF8008E469BB280008340BEF1090F91B245EA4E
:100E0800030504F10104EBD8EDB2D7F88C31494A57
:100E180082FB0312D917C1EB623189B2002900F0B5
:100E280082804FF0000CDFF814E16446AEFB01321B
:100E3800D20802EB8203A1EB43035FFA8CF08846E9
:100E48009BB280008340B8F1090F91B244EA0304D1
:100E58000CF1010CEAD8E4B2B7F89C3136494FF4EA
:100E6800F36213FB02F381FB0312D917C1EBA21142
:100E780089B242F20F73994240D8C9B10027DFF80E
:100E8800BCE0BC46AEFB0132D20802EB8203A1EB08
:100E98004303F8B288469BB280008340B8F1090F3B
:100EA80091B24CEA030C07F10107EBD81FFA8CF159
:100EB80033681722581C30601A7033680022581C97
:100EC80030601A7030463BF043FE4FF0FF31304639
:100ED8003BF026FE33685A1C32601D7033685A1C7A
:100EE800326030461C700621FFF74CFB0120BDE83C
:100EF800F081992589E70020BDE8F0810020DFF81E
:100F08003CC00146ACFB0372D20802EB8207A3EB9C
:100F180047039BB283400430102841EA030193B28F
:100F2800F0D189B2C4E70C4696E700BF0000001074
:100F3800580E002089B5F814D34D6210CDCCCCCC16
:100F48002DE9F04FC14A1369804613F0800083B041
:100F580000F06F81506910F0020000F06A81DFF83C
:100F68000CB39BF88031052B40F26881DBF88431A3
:100F7800B74D0093002BB8BF5B42A5FB0342B548B1
:100F8800B549920D00FB0233C3EB03139B0085FBAD
:100F9800034502EB8202DC1702EB8202C4EBA55484
:100FA80000FB043304EB8204A4B281FB0321DB17AA
:100FB800C3EBA111BCB10025A84F2E46A7FB0432F4
:100FC800D20802EB8203A4EB4303E8B2A4469BB227
:100FD80080008340BCF1090F94B246EA030605F18C
:100FE8000105EBD8340489B2B9B100259B4F2E46D0
:100FF800A7FB0132D20802EB8203A1EB4303E8B25C
:101008008C469BB280008340BCF1090F91B246EA3E
:10101800030605F10105EBD83443DBF888E18C4D74
:101028008C4E8D498EEAEE70A0EBEE70A5FB003277
:10103800920D06FB0200C0EB0010830085FB0350F5
:1010480002EB8202DD1702EB8202C5EBA05506FB1C
:10105800053305EB8205ADB281FB0321DB17C3EB3A
:10106800A111C5B10020DFF8F4C10646ACFB05327A
:10107800D20802EB8203A5EB4303C7B2A9469BB291
:10108800BF00BB40B9F1090F95B246EA030600F16B
:101098000100EBD8350489B2C1B10020DFF8BCC12A
:1010A8000646ACFB0132D20802EB8203A1EB4303F4
:1010B800C7B289469BB2BF00BB40B9F1090F91B2D4
:1010C80046EA030600F10100EBD83543DBF88C3122
:1010D800624A0193002B1846B8BF5842A2FB003061
:1010E8005F4E6049030AA6FB0363DB0901FB03F1BA
:1010F800C1EBD00189B2B9B1002691463746A9FBA8
:101108000132D20802EB8203A1EB4303F0B28C4612
:101118009BB280008340BCF1090F91B247EA0307F4
:1011280006F10106EBD8B9B2BBF89E71DFB1002613
:10113800DFF828A1B446AAFB0732D20802EB8203E3
:10114800A7EB43035FFA86F938469BB24FEA890951
:1011580003FA09F3092897B24CEA030C06F10106D1
:10116800E9D81FFA8CF7BBF8A4313C4AA2FB030666
:10117800F608632E28BF6326092B63D900209346FF
:101188008146ABFB0632D20802EB8203A6EB43038F
:101198005FFA80FAB4469BB24FEA8A0A03FA0AF366
:1011A800BCF1090F96B249EA030900F10100E8D839
:1011B8005FFA89F9009B019A002BCCBF39233823A9
:1011C8001616BEF1000F26F07F0635DD264A33439A
:1011D800964543F00206C8BF43F00606D8F800302B
:1011E8001622581CC8F800001A70D8F800300022DF
:1011F800581CC8F800001A7040463BF0A9FC21466C
:1012080040463BF08DFC294640463BF089FC404671
:1012180039463BF09DFCD8F800305A1CC8F800202D
:1012280083F80090D8F800305A1CC8F80020012034
:101238001E7003B0BDE8F08F1E43CFE7002003B057
:10124800BDE8F08F4FF00009B4E700BF00000010C0
:101258006BCA5F6B806967FFD34D6210CDCCCCCC75
:10126800C55A7C0AA0860100FFC99A3B580E002087
:1012780003687E22591C10B501601A7003680022A9
:10128800591C01601A704FF6FF7104463BF03AFC96
:101298000D4B93F82E3083B117F09AFE0146204685
:1012A8003BF030FC204647F6FF713BF02BFC204614
:1012B8000821FFF767F9012010BD17F09FFE0146CE
:1012C80020463BF01FFCEDE7580E002070B50446A1
:1012D8002DED028B00200D4625F070F8002851D026
:1012E8002A4ED6E90601201A65EB010141F0CCF837
:1012F8009FED270A07EE900A27EE800A40F2DC539A
:10130800BCEEC00A10EE102A9A4235D8214CB8EE2D
:10131800C08A23F009F8B4F810329FED1F1ADFEDE8
:101328001F0A07EE900A02EE103AF8EEE71AB8EE36
:10133800422AB0EE480A3BF08BFE94F82032DFEDEB
:10134800171A9FED151AFDEEC07A02EE103A17EE45
:10135800903AB0EE480AB8EE422AF0EE610AF381FC
:101368003BF076FEBDEC028BFCEEC07A002017EE57
:10137800903A86F8213070BDFFF712FABDEC028B67
:10138800012070BDBDEC028B042070BD0000001070
:101398006F12833A580E00200080BB440000000002
:1013A800F0B5334D334FD5E906322DED028BC01A17
:1013B80083B061EB020141F067F89FED2F8AB7F81F
:1013C800186207EE900A27EE888A25F025F800288B
:1013D80049D1BCEEC88A18EE103A9E4204D20120C8
:1013E80003B0BDEC028BF0BDB5F90E30DFED230A7A
:1013F80002EE103AB7F8123207EE906AB8EEC88AD1
:1014080001EE903AB8EE671AB8EEC22AF8EE611A01
:10141800B0EE480A04468DED011A3BF019FE97F824
:101428002032DFED160A9DED011A01EE903AB5F96A
:101438000A30FDEEC07A02EE103A17EE903AF8EE56
:10144800611AB8EEC22AB0EE480AEB813BF000FE02
:10145800FCEEC07A204617EE903A85F8213003B0AA
:10146800BDEC028BF0BD032003B0BDEC028BF0BDD8
:1014780000000010580E00206F12833A0000000090
:101488002DE9F041274E284DD6E90632C01A61EB06
:10149800020140F0F9FFDFED257AB5F81432B5F80E
:1014A8001A2207EE100A67EE277AFCEEE77A17EEA3
:1014B800904A234493422ED8B5F81672B5F8128292
:1014C800A74204D2A6F80E800120BDE8F08122F0E0
:1014D8002BFFB5F81032DFED160A07EE908A984216
:1014E800B8BF1846B8EE672A07EE907A83B201EEC5
:1014F800903AB8EE671A07EE904AF8EE611AB8EE1D
:10150800E70A3BF0A5FDBDEEC00A002010EE103A38
:10151800F381BDE8F08124F07FFF0028CCD00320C0
:10152800BDE8F08100000010580E00206F12833AC9
:101538000000000070B504460D46FFF731F9124B64
:10154800124ED3E90601201A65EB010140F09CFF19
:10155800DFED0F7AB6F81A3207EE100A67EE277A2F
:10156800FCEEE77A17EE904A9C4206D8B6F81402C9
:10157800A0422CBF0020012070BD24F04DFF0028A0
:10158800F4D0032070BD00BF00000010580E0020EA
:101598006F12833AF8B504462DED048B00200F46F0
:1015A80024F00CFF002800F08180424D9FED427A24
:1015B800D5ED0C7A414E9FED420A96F82132F0EEB5
:1015C800E76AF4EEC76AF1EE10FA46DD07EE103A64
:1015D800B8EEC77AD5ED0E6AD5ED0D8A27EE000A6A
:1015E80086EEA79A3BF010FEB6F80C3207EE903A5A
:1015F800F8EEE77AB0EE408AF4EEE78AF1EE10FAF8
:1016080044DCB6F80A3207EE903AF8EEE77AF4EEE0
:10161800C97AF1EE10FA41D5F5EEC08AF1EE10FA6A
:101628003CDDFFF7BDF8D5E90601201A67EB01019B
:1016380040F02AFFDFED237AB6F80E5207EE100AC3
:1016480067EE277ABDEC048BFCEEE77A17EE903A4A
:101658009D422CBF00200120F8BD07EE903AF8EE1D
:10166800E77AD5ED0D8A27EE800A3BF0CDFDB6F876
:101678000C3207EE903AF8EEE77AB0EE408AF4EED4
:10168800E78AF1EE10FA09DD9FED0F9A22F070FE5D
:10169800B4EEC80AF1EE10FAC3DAB2E7FFF780F841
:1016A800BDEC048B0020C5E90647F8BDBDEC048BF2
:1016B8000420F8BD00000010F366DF3F580E00203C
:1016C80035FA8E3C6F12833A000000000B68144A0A
:1016D80030B40568CC682A402343D1E90545134353
:1016E8002343D1E907242B4313434A6A4D6B234311
:1016F80013438C6BCA6A2B43234343F400330360C0
:1017080044690B6B0D6924F0070413432343D1E9A3
:10171800014243614560846030BCC260704700BFCD
:101728003F801CF000F01F0240090123032803FA40
:1017380002F304D0042807D002280AD07047074AC9
:10174800116C0B4313647047044A116B0B4313630A
:101758007047024A516C0B4353647047003802408B
:101768002DE9F047041E0D4612DB092C26DC824ABF
:101778000B468248A0FB0410C00800EB8000A4EBD5
:1017880040000021125C1A7059702846BDE8F087A5
:1017980064422D23092C01F8013B24D8764A774B63
:1017A800A3FB0403DB0803EB8303A4EB4303002040
:1017B800D35C48700B702846BDE8F0876F4B632CEC
:1017C800A3FB04264FEAD60621DC6B4A0B466B497D
:1017D800A1FB0601C90801EB8101A6EB4101515C9F
:1017E80003F8011BC5E7654A632CA2FB04364FEAE0
:1017F800D60637D8604A614BA3FB0603DB0803EB28
:101808008303A6EB4303D35C01F8013BC7E7A3FBC3
:101818000627B4F57A7F4FEAD7070DD2564A0B460A
:101828005649A1FB0701C90801EB8101A7EB41015A
:10183800515C03F8011BCAE7A3FB072842F20F72A9
:1018480094424FEAD80836D84B4A0B464B49A1FB7D
:101858000801C90801EB8101A8EB4101515C03F8BB
:10186800011BDDE7A2FB0637B4F57A7F4FEAD707FD
:101878000CD2414A414BA3FB0703DB0803EB83036C
:10188800A7EB4303D35C01F8013BB4E7A2FB07389D
:1018980042F20F739C424FEAD80821D8364A374B98
:1018A800A3FB0803DB0803EB8303A8EB4303D35C28
:1018B80001F8013BDEE7324AA3FB080994424FEAEC
:1018C800D90921D82C4A0B462C49A1FB0901C90882
:1018D80001EB8101A9EB4101515C03F8011BB5E75C
:1018E800274BA2FB08099C424FEAD90921D8224A72
:1018F800224BA3FB0903DB0803EB8303A9EB430398
:10190800D35C01F8013BCAE71E4AA3FB09039442D2
:101918004FEAD30A21D80B461849174AA1FB0A01F6
:10192800C90801EB8101AAEB4101515C03F8011BD5
:10193800CAE7144BA2FB09029C424FEAD20A13D809
:101948000E4B0D4AA3FB0A03DB0803EB8303AAEB48
:101958004303D35C01F8013BCAE70A22BAFBF2F061
:101968003AF022FE0346D7E70A22BAFBF2F03AF031
:101978001BFE0146E4E700BF60DE0408CDCCCCCCFA
:101988009F8601003F420F002DE9F04788B0541CA4
:1019980003941478002C00F04A81002507468846F5
:1019A8001E46A9460BE0791C02D021463846C0479E
:1019B800039A0135531C03931478002C54D0252C1A
:1019C800F1D1931CCDE9033950782D2800F0C4805B
:1019D8004FF0000A302800F0A780A0F13003DBB2F6
:1019E800092B4FF0000440F2AB806C284AD07828CD
:1019F80034D857283CD9A0F15803202B2ED8DFE83B
:101A080013F0FE002D002D002D002D002D002D00BF
:101A18002D002D002D002D00D500F8002D00BC0054
:101A28002D002D002D002D002D002D002D00B700BC
:101A38002D002D002D002D0021002D00DE002D0091
:101A48002D00FE0056F8042B049BCDE90092424677
:101A58004FF0FF3138463BF0B9F80544039A531C60
:101A680003931478002CAAD1284608B0BDE8F08763
:101A78000028F9D02528F1D17B1C99D0252138469A
:101A8800C04795E7039B5A1C03921978782991D887
:101A9800572967D9A1F15803202B8BD801A050F8FA
:101AA80023F000BF1F1C0008BD190008BD1900085D
:101AB800BD190008BD190008BD190008BD190008A6
:101AC800BD190008BD190008BD190008BD19000896
:101AD800B51B0008DF1B0008BD190008831B0008A0
:101AE800BD190008BD190008BD190008BD19000876
:101AF800BD190008BD190008BD1900087B1B0008A6
:101B0800BD190008BD190008BD190008BD19000855
:101B18004D1A0008BD190008EB1B0008BD19000884
:101B2800BD1900081F1C0008039B5A1C0392187853
:101B3800A0F13003DBB2092B4FF001043FF655AF9B
:101B480004AA03A9FEF71CFBBAF1000F3FF44DAF3E
:101B5800049B5B42049348E7D31C039390784FF0AF
:101B6800010A37E700293FF47FAF252984D021E710
:101B7800039A56F8043B1D601CE7073626F0070653
:101B8800F6E8020140F048FB00EE100A05A83AF01A
:101B9800A1FC05ABCDE900434246049B4FF0FF3161
:101BA80038463BF013F8039A054403E77A1C3FF4E0
:101BB800FFAE56F8041B3846C9B2C047F8E656F8D7
:101BC800040B05AB00220A213AF04AFD05ABCDE92A
:101BD8000043049B3BE756F8040B05A93AF0FCFCCC
:101BE800F4E756F8040B05AB00220A213AF038FD59
:101BF800ECE756F8040B05A93AF0EEFCE6E7A0F18D
:101C08005802B2FA82F256F8040B520905AB1021B9
:101C18003AF026FDDAE7A1F15802B2FA82F256F854
:101C2800040B520905AB10213AF01AFDCEE7254600
:101C38001AE700BF82B000230193019A0C490D4BAB
:101C4800D1F81C1E42F020020192019A60F38A1218
:101C58000192019A0A610A69019203E00A690192F4
:101C6800013B02D0019A9206F8D4002002B07047D6
:101C7800580E0020400D030010B5802104463DF0A9
:101C88004BFD204600213DF047FD2046BDE81040B1
:101C98003DF076BD037870B433B30246C0F1010558
:101CA800531912F8014FDBB2002CF9D101335B0054
:101CB800DAB20F4C0B80032384F80C2384F80D331D
:101CC800017879B1022300265A1CE51854FA82F2E9
:101CD80085F80C1382F80C6310F8011F0233DBB28D
:101CE8000029F1D170BC704702221346E1E700BF1A
:101CF800501F00202DE9F04F2DED108B034693B0B7
:101D080004331193DFEDC1AA109002230F928B4682
:101D18000E938946109C4FEADB0504EB451202EB53
:101D28000511A5EB85034FEAC5084FEA051E05EB2B
:101D3800850A009101EBC30308F104000EF10401C8
:101D48002E46204405EB450521444FEACA040D966A
:101D580002942C01C6EBC60C0394EC000D9D049470
:101D68004FEACC0405946C010194119D009C03EB8F
:101D780046174FEACB0A02EBC6064FF0000C55EDAA
:101D8800011A11ED012AD6ED005AD7ED004A92ED5D
:101D9800003AD4ED003A10ED015A93ED004A72EE84
:101DA800238A34EE248A71EE836A35EE257A36EE7C
:101DB800A86A77EE087A35EE655A76EE275A36EE37
:101DC800676A45ED015A82ED006A90ED00AAD6EDEA
:101DD800012A93ED016AD7ED019A94ED010AD1ED3C
:101DE800005AD5ED007A92ED019A34EE644A76EE07
:101DF800690A7AEE624A35EEC01A31EEC33A72EEDB
:101E0800633A34EEA02A77EEC91A74EEE04A75EE0A
:101E1800805A75EE440AB0EE410A35EE045AA2EE35
:101E28002A0ADC44E145A2EE6A1AB0EE434AB0EE53
:101E3800432AA0EEAA2AA0EEEA4AB0EE613AF0EEF2
:101E4800610AE4EEAA0AA4EEEA3AF0EE634AE5EE85
:101E58006A3AE5EE2A4A7AEE222A36EE296A77EEBF
:101E6800897A72EE861A37EE487A32EEC66A76EECC
:101E7800E86AB0EE635A77EEA53A77EEE57A73EE44
:101E8800A18A36EE868A73EEE13A76EEC66A77EE76
:101E9800C71A72EE002A77EE277A74EE015A30EEEE
:101EA800E46A33EE457A32EE402A34EE414A74EE63
:101EB800A04A35EE035AC5ED008AC2ED013A5544F1
:101EC80001ED018A5244C4ED006AC1ED001AC4ED67
:101ED800017A514440ED012A544487ED002AC6EDA9
:101EE800005A83ED004A80ED006AC7ED014A50446C
:101EF80086ED017A574483ED015A564453443FF620
:101F08003EAF0D9B072B40F2A3810198109D059BC6
:101F1800049A0399029C0830281808330A90284626
:101F2800C318083282180593034608F108080EF111
:101F38000C0E0C33083408310692024645447244AC
:101F48000419411804934B460995D1460894079102
:101F580003924FF001084FF0000E9A460E9B9E44E4
:101F68000F9B03EBCE0303EBCE0202EBCE0000EB9C
:101F7800CE0404EBCE0505EBCE060C9306EBCE079C
:101F8800AEEB8E030B9207EB031202EBCE0C0CEBBD
:101F9800CE03029203EBCE0201931346D3ED01DA8E
:101FA800019BD0ED007A93ED01DA029BCDED027A28
:101FB80093ED01CA0B9BDCED01CAD3ED007A0C9BB3
:101FC800CDED017A02EBCE0202EBCE01009201EBDD
:101FD800CE02D3ED007A92ED01FA009AD1ED01EA32
:101FE80092ED01EAD7ED00BA96ED00BA95ED00AA98
:101FF800D4ED009ACDED007ADDE90376DDE90554EC
:10200800DDE90701DDE90923C44601E0F304353FB2
:1020180091ED006A56ED01FAD0ED002AD4ED005A90
:10202800D5ED006A93ED007A57ED017A92ED002A1A
:1020380096ED008A7FEE870A32EE061A37EEA24A3C
:1020480075EEA64A70EE841A31EE245A32EE462A0C
:1020580031EE856A75EEE65A06ED016AD4ED018A1D
:1020680092ED019A91ED013A95ED016A97ED000A1A
:10207800D0ED016AD3ED013A3FEEC77A77EEE27A06
:1020880078EEC6FA79EE432A39EE033A30EE669ACC
:1020980038EE866A70EE266A78EE638A32EEEF0AC8
:1020A80072EEAF2A78EE233A30EEC44A32EE258A31
:1020B800F0EE490A72EE655AE2EEAA0ADC44E245FD
:1020C800A2EEEA9AB0EE682AF0EE472AE5EEAA2ACE
:1020D800A5EEEA7AA0EE2A2A73EE065AE0EE6A8A9C
:1020E800F0EE67FA33EEA60AE8EE6A7A71EE644A11
:1020F80031EEC55A33EE463A70EE651A73EEE63A9B
:1021080034EE036A72EEA06A34EE434A72EEE00AD5
:1021180033EEE43AE8EE2AFA74EEA33A65EE6D2A55
:1021280077EE094A37EE499A38EEE77A77EEA88AC9
:102138006DEEA17A9DED018AE9EE857AE9EEA12A94
:1021480026EE6C5A6CEE831A32EE6F1AA8EE035A1A
:10215800E8EE061A2EEEA33A24EE6E6A9DED008A8A
:102168003FEE822AABEE043AABEE236A2CEE014A2C
:1021780066EECC3AA8EE264AE8EE013A6FEE026A1D
:1021880020EECF1AEBEEA06AABEE821A64EECE0A0E
:102198002EEE072A9DED028AEAEE070AAAEE242A05
:1021A8002DEE287A69EE4D4AA8EE097AE8EE284A1B
:1021B80070EE255AC6ED005AC3ED007AC3ED012A28
:1021C8004E4447ED011A87ED005A4B4480ED003A22
:1021D80080ED016A4F4482ED004AC2ED013A48445D
:1021E800C5ED006A85ED011A4A4481ED002A4D4487
:1021F800C1ED010A84ED007AC4ED014A49444C441A
:102208003FF606AF0A9B08330A93099B08330993E4
:10221800089B08330893079B08330793069B0833EA
:102228000693059B08330593049B08330493039B8B
:10223800083303930D9B08F1010843457FF48EAEE4
:102248000E9BDDF834B0DB009BB2D1460E9361E5FE
:1022580013B0BDEC108BBDE8F08F00BF38B51B4C38
:102268001B4DAC4203D325E00C34AC4222D2637937
:102278008B42F9D12379834201D00028F4D1E37944
:102288009342F1D12568B5B100236B60AB60EB6078
:102298002C602B616B61AB6122792A71A179A960ED
:1022A800217AE960012A08D0022A03D12B602B7118
:1022B8001D4600E00025284638BDE07A37F034FE98
:1022C800627AA37A6B7468612A74F4E7B82A0508FD
:1022D800E82A0508804BB3FBF2F399420DD300239B
:1022E8004FF07E5243608360C36003610260002345
:1022F800836143610362C361704707EE902A9FEDD3
:10230800777AF8EE676A07EE901A66EE876AF8EE53
:10231800677A66EEA76AFDEEE67A17EE903A203302
:10232800402B00F2CA80DFED6E7AF4EEE76AF1EE38
:1023380010FAF0EE667A0CDDDFED6A5A9FED6A6AF4
:10234800B0EE677AB4EEC67AF1EE10FA77EEE57A77
:10235800F6DC9FED667AF4EEC77AF1EE10FA0CD54A
:10236800DFED605A9FED626AB0EE677AB4EEC67A26
:10237800F1EE10FA77EEA57AF6D49FED5E7AF4EED8
:10238800C77AF1EE10FA00F390809FED5B7AF4EED5
:10239800C77AF1EE10FA44BF9FED547A77EE677A68
:1023A80027EEA76ADFED554A9FED557A9FED555AFE
:1023B800DFED555AA6EE247A67EE864AA6EE075A4E
:1023C800B6EE007AE6EE055AE4EEA57A27EE877AAD
:1023D8009FED486A76EE867AFDEEE75A15EE903A5A
:1023E8002033402B66D8F4EEC66AF1EE10FA0CDD05
:1023F800DFED3C5A9FED3C6AF0EE676AF4EEC66A80
:10240800F1EE10FA77EEE57AF6DCDFED386AF4EEF5
:10241800E67AF1EE10FA0CD5DFED325A9FED346A08
:10242800F0EE676AF4EEC66AF1EE10FA77EEA57A76
:10243800F6D4DFED306AF4EEE67AF1EE10FA3FDD1D
:10244800DFED276A76EEE77A67EEA76ADFED2B4ABB
:102458009FED2B5ADFED2B5A9FED2B6AA6EEA45A5F
:1024680067EEA64AE6EE855AB8EE005AA6EEA56AC9
:10247800E4EE867A67EE857AC7EE006AB7EE006A00
:1024880076EE865A76EE666A86EE257A67EE277AC3
:1024980066EE876AC0ED017AC0ED037A80ED007AB6
:1024A80080ED027AC0ED046A21E79FED0D7A77EEA0
:1024B800677A75E7DFED157ADEE79FED147A87E72F
:1024C800DFED0D6AF4EEE67AF1EE10FA44BFDFEDC7
:1024D800076A76EEE77AB7E720A1070027D4D23655
:1024E800DB0F4940DB0FC940E4CB1641DB0F49C085
:1024F800E4CB16C1DB0FC93FDB0FC9BF9A7C2E3670
:10250800FAAF4FB93587083CA4AA2ABE00000000DC
:102518000023024A426003608360704783F9223EC9
:10252800034A044B4260002101608360704700BF8A
:102538005B128B3A6F12033B034B6428B8BF6420CD
:10254800C3F8E402704700BF00000020034B642872
:102558001B6CB8BF6420D860704700BF0000001033
:102568002DE9F04790B0DDE918480E460746914638
:1025780001A83C2200219A461A9D45F09AFD2E4B4F
:102588008DF80460CDF834800293002E50D0B31E2D
:10259800012B4FD9042E14BF00230323DFF89C809E
:1025A8008DF80530D8F84C3403941C440123CDE948
:1025B800055704948DF83130B9F1000F06D0524612
:1025C800494607A845F04DFD8DF830A098F852E42B
:1025D8000023BEF1010F0E931CD801AC0FCC98F864
:1025E80051C4CCEB0C1508EB850505F254450FC515
:1025F8000FCC0FC50FCC0FC594E80700BCFA8CFCB4
:102608000EF1010E4FEA5C1C85E8070088F852E4D9
:1026180088F851C43B6843B153464A463146384668
:1026280010B0BDE8F0471CF055B810B0BDE8F08711
:102638000523B3E70223B1E75C230020501F0020E5
:1026480010B4134A002392F90040844202F10C02AC
:1026580006D00133042BF6D100205DF8044B7047F7
:102668000C4C03EB430304EB8303D3F8BC20002A90
:10267800F2D11428F0D184F86400074A226604F1E4
:102688006000C3F8BC105DF8044BC3F8B80070478D
:102698000C0F0020580E0020F0810408002303606E
:1026A800704700BFB4EEE00AF1EE10FA09D4F7EE75
:1026B800007AB4EEE70AF1EE10FA88BFB0EE670AC6
:1026C8007047B0EE600A7047074B0849D3F8FC24FE
:1026D800C3F8EC14931E4FF47871223223F8021FCA
:1026E8009342FBD1704700BF501F0020912F010873
:1026F80070B51D4E1D4BC6F8EC3411244FF4787597
:1027080006F5A1634FF4787086F8D0444FF47874D6
:10271800C3E90045C3E90245C3E90445C3E90645E1
:10272800C3E90845C3E90A45C3E90C45C3E90E45B1
:102738000F49C6F8480506F59A6241F60B240025AC
:102748004020C2E90245C6F8F0141DF0E1F948B18D
:1027580090F904004021FFF773FFC6F84C050038D4
:1027680018BF012070BD00BF501F0020C1B701086D
:10277800B9B80108044BD3F87C26B3F8803608B101
:102788005383704713837047501F0020054BD3F8BD
:102798007C26B3F8803651690B4214BF53831383E8
:1027A800704700BF501F0020642828BF64201C4BBE
:1027B80000EB800070B54500A3FB05235E095B09AB
:1027C80018BF002422D001349F2038F023FFE3B241
:1027D8009E42F8D80A2E00D170BD1248A0FB0530E1
:1027E8000009C6EB8613C6EB830366381844C0B2EB
:1027F80038F010FF092E06F10104EDD001349A20BB
:10280800E4B238F007FF0A2CF8D170BD0548A0FBE8
:10281800053000096638C0B238F0FCFE0124EDE747
:102828001F85EB51CDCCCCCCF0B41A4F97F89C3720
:10283800032B2DD80C2202FB037202F2A47252F869
:10284800041C0133CC07DBB20ED501420CD092F93F
:102858000060114C002194F90050B54204F10C04B9
:102868000BD001310429F6D1042B02F10C02E6D178
:1028780087F89C370020F0BC7047084A87F89C37D7
:1028880001EB410102EB8101F0BCD1F8B8007047BF
:102898000020F0E7501F00200C0F0020580E0020E9
:1028A8000144884218D030B4441E4D1E002041F225
:1028B800210114F8012F082380EA022010F4004FA8
:1028C80081EA40020ABF400090B280B2013BF5D1D4
:1028D800AC42EED130BC704700207047D0ED017A91
:1028E800F5EE407AF1EE10FA05D19FED0B7AF0EE95
:1028F800477A80ED017A30EEA77AD0ED007AC0ED04
:10290800020AC0EE876A30EE670AE6EE807AB0EE19
:10291800670AC0ED007A704783F9223EBCEEC00A10
:102928007F4AB2FBF1F210EE103A9BB2934208D301
:1029380000234FF07E5243608360C36003610260EE
:10294800704707EE901A9FED777AF8EE676A07EE00
:10295800903A66EE876AF8EE677A66EEA76AFDEE49
:10296800E67A17EE903A2033402B00F2CA80DFED6A
:102978006E7AF4EEE76AF1EE10FAF0EE667A0CDDA4
:10298800DFED6A5A9FED6A6AB0EE677AB4EEC67AEE
:10299800F1EE10FA77EEE57AF6DC9FED667AF4EE62
:1029A800C77AF1EE10FA0CD5DFED605A9FED626A36
:1029B800B0EE677AB4EEC67AF1EE10FA77EEA57A41
:1029C800F6D49FED5E7AF4EEC77AF1EE10FA00F3D2
:1029D80090809FED5B7AF4EEC77AF1EE10FA44BF6F
:1029E8009FED547A77EE677A27EEA76ADFED554AAE
:1029F8009FED557A9FED555ADFED555AA6EE247A8C
:102A080067EE864AA6EE075AB6EE007AE6EE055A53
:102A1800E4EEA57A27EE877A9FED486A76EE867A05
:102A2800FDEEE75A15EE903A2033402B66D8F4EEC7
:102A3800C66AF1EE10FA0CDDDFED3C5A9FED3C6AF8
:102A4800F0EE676AF4EEC66AF1EE10FA77EEE57A10
:102A5800F6DCDFED386AF4EEE67AF1EE10FA0CD522
:102A6800DFED325A9FED346AF0EE676AF4EEC66A1B
:102A7800F1EE10FA77EEA57AF6D4DFED306AF4EECF
:102A8800E67AF1EE10FA3FDDDFED276A76EEE77AB7
:102A980067EEA76ADFED2B4A9FED2B5ADFED2B5A25
:102AA8009FED2B6AA6EEA45A67EEA64AE6EE855A73
:102AB800B8EE005AA6EEA56AE4EE867A67EE857A45
:102AC800C7EE206AB7EE006A76EE865A76EE666A38
:102AD80086EE257A67EE277A66EE876AC0ED017A78
:102AE800C0ED037A80ED007A80ED027AC0ED046AC9
:102AF80070479FED0D7A77EE677A75E7DFED157A07
:102B0800DEE79FED147A87E7DFED0D6AF4EEE67AEB
:102B1800F1EE10FA44BFDFED076A76EEE77AB7E721
:102B280020A1070027D4D236DB0F4940DB0FC9406C
:102B3800E4CB1641DB0F49C0E4CB16C1DB0FC93F1C
:102B4800DB0FC9BF9A7C2E36FAAF4FB93587083CE0
:102B5800A4AA2ABE0000000070B4344890F8D43704
:102B6800A3F13001092957D800F2D474224600F2A3
:102B7800E37012F8015FA5F13001092904D88242F7
:102B8800F7D1002070BC7047141B022C4ADD28487E
:102B9800002101E010F8013B01EB810103EB410347
:102BA800161A303B022E044603F0FF01F2DC214BDB
:102BB80003FB01F1A2424FF000030DD903EB83039D
:102BC80014F8016B5B00303B3344A24203F0FF036F
:102BD800F4D1194800FB03F32E2D06D01748A0FBAB
:102BE800032301EB930070BC7047013204200024DA
:102BF800157804EB8404303D6400092D00F1FF30A2
:102C0800A4B202D82C44A4B2013210F0FF00EFD1D4
:102C1800642202FB0433E1E700211D4600F2D4726E
:102C28000B46D9E7064C0021C4E700BF501F00201F
:102C3800252700208096980040420F00ABAAAAAA38
:102C48002427002030B4144AD2F8E407D2F8E83731
:102C5800D2F8EC47D2F8F017D2F8F427834202DB17
:102C68001D46034628468A4202DB15460A4629467F
:102C78008842A8BF08469342B8BF1346A04202DC68
:102C8800224604461046834203DAA342B8BF2346CD
:102C9800184630BC704700BF501F00200B6810B4A6
:102CA80014681B1B036054684B681B1B43608B68CC
:102CB80092685DF8044B9B1A836070472DE9F047D2
:102CC80005468CB00846144639F050FE4FF47A7227
:102CD800002306460F463FF01DFC394680464FF458
:102CE8007A72304600233FF015FC3C2604FB068828
:102CF8004FF47A7396B20027C3FB08673B4609A8CE
:102D0800324639F07DFD764B93F8FA37012B00F007
:102D18009880022B17D19DF82680A8F10303082B71
:102D280011D8A8F10403062B40F28280BDF82400D4
:102D3800414639F0FBFCB8F1030F00F09E80B8F172
:102D48000B0F00F0A78032463B4609A839F058FD22
:102D58006449BDF8242081FB04310B19E117C1EB4C
:102D68006311C1EB0113A4EB83031BB2002BB8BFA3
:102D78005B42B2F5FA6F9EB209B220D39DF82630B5
:102D8800581E0B281BD89DF82770781E1E2816D8A9
:102D98009DF828C0BCF1170F11D89DF829E0BEF1A5
:102DA8003B0F0CD89DF82A90B9F13B0F07D8BDF816
:102DB8002C00B0F57A7F02D24FF0010812E0002310
:102DC800DFF82CA1ADF82830012718468DF82A30F5
:102DD800ADF82C3099469E469C461A469846CDF842
:102DE80024A03B4614F13B0FB4BF2D242B2400290B
:102DF800B8BF494289B2CDE90390CDE90541CDE993
:102E080001CE394907960097284639F0ABFE40466F
:102E18000CB0BDE8F087B8F1030F59D0B8F10A0F2C
:102E280091D19DF82810B1FA81F1490900298AD079
:102E38002E4B3C34F6184FF0000324B243EB07073F
:102E480081E79DF82680A8F10303072B3FF67BAFA7
:102E5800A8F10403052BEBD9BDF82400414639F04D
:102E680065FC9DF827309842D5D0B8F1030118BF0A
:102E780001210029DCD166E707380E28FCDC9DF823
:102E88002730834212D0CCBF012100210029CFD1A5
:102E980059E707380728FCDC9DF8273083420ED015
:102EA800B4BF012100210029C2D14CE79DF82810A8
:102EB800012994BF002101210029B9D143E79DF8D8
:102EC800281001298CBF002101210029B0D13AE73F
:102ED8009DF82810003918BF01210029A8D132E730
:102EE800501F00208988888888DE040880EE360014
:102EF8000000010138B50A4C0A4D2321D5F8FC071A
:102F080038F054FD14F8011F0029F7D1064831F0B4
:102F180023FE95F8003813B1012385F8013838BD30
:102F2800B8DE0408501F0020C4DE04082DE9F04F65
:102F38003B4C3C4B94F8C85D3B4ADFF8F48089462B
:102F4800002D08BF1A4694F9C91D8BB007463748AB
:102F58002FF086FE04F628044D460026B9F1000F2E
:102F68003ED022782B789A426A683BD0D5E902CEC7
:102F78000021A87D0790B5F914000690B5F9120054
:102F88000590B5F910000093CDE903E0CDE9012CD7
:102F9800334642463846099130F024FA0999A37D10
:102FA8006268B4F914B0B4F912A0B4F910E0D4E925
:102FB800020C079314F8183B0093CDE9012033461F
:102FC800CDE905ABCDE903CE42460136384630F0AF
:102FD80025FA3C2E05F11805C0D10BB0BDE8F08FDD
:102FE8004946DCE76168D5F808C0914202D0D5F8B7
:102FF8000CE0BDE7A168D5F80CE06145B8D1E168FF
:103008007145B5D1206929698842B1D1606969697A
:1030180020F07F4021F07F418842A9D10121A8E713
:10302800580E0020D4DE0408B8E30408D8DE0408EB
:10303800E8DE040870B51F4E96F8B4372DED028B04
:1030480004460D467BB3D6F8C017D6F8C427D6F881
:10305800BC370360C0E9011206F5916393EDCC8A91
:10306800DFED158A95ED000A80EE280A41F008FE8A
:1030780023681844206028EE288A95ED010A80EE1E
:10308800080A41F0FDFD63681844606095ED020A86
:1030980041F0F6FDBDEC028BA3680246134496F896
:1030A800B407A36070BDC0E900338360B7EE008A3F
:1030B800D6E700BF580E00202C7D8E3FF0B4244B7D
:1030C80093F8B45782B03DB900230360436083602E
:1030D800284602B0F0BC70474C68D3F8BC7701941E
:1030E8000C68D3F8C0679FED1B6AE71B019CA41B03
:1030F80007EE904A03F59164D4EDCC6A07EE107A96
:1031080066EE866AB8EEC77AF8EEE77A27EE067AB0
:1031180067EEA67A012A80ED007AC0ED017A0DD01B
:103128008A68D3F8C437D21A07EE902AF8EEE77AFD
:10313800C0ED027A284602B0F0BC7047D1ED027AA1
:10314800F8EEE77AC0ED027A284602B0F0BC704784
:10315800580E00202C7D8E3F1A4AF0B4546C1A4D3C
:10316800002CD5F8D83203600EDD4832002305F56F
:10317800367601E09C4207D052F8041BB14203F1B5
:103188000103F7D1012200E00022D5F8E432836080
:10319800027195F8E8324371D5E9C232D5E9C467BE
:1031A800D5F80013D5E9C6455B0943EAC26352095D
:1031B800C0E90467C0E90645C0E90832F0BC81628D
:1031C800704700BF0000001000000020014B186B82
:1031D800704700BF00000020014BD3F8C0007047C3
:1031E80000000020014B986F704700BF00000020CE
:1031F8000C4608B505461CF0A7FA20461CF0A4FAB0
:103208000020FFF7B7FA284636F00AF9B0B9204689
:1032180036F006F90028F6D00120FFF7ABFA204671
:1032280036F0F6F80146284636F020F90020FFF778
:10323800A1FA284636F0F4F80028E8D00120FFF774
:1032480099FA284636F0E4F80146204636F00EF999
:103258000020FFF78FFADAE710B4414A92F8C1303C
:10326800D2F8A800023BD2E92814062B74D8DFE86C
:1032780003F05A5C605006550400644249424042DB
:1032880080EAE073A3EBE07306EE903A84EAE47315
:10329800A3EBE47307EE103AF8EEE66A9FED316AA5
:1032A800B8EEC77A26EE866A81EAE173A3EBE1738A
:1032B80007EE903AB4EEC76AF1EE10FAF8EEE77A44
:1032C80004DDB4EEE76AF1EE10FA34DC9FED256A0E
:1032D80027EE066AB4EEE76AF1EE10FA04DDF4EEC2
:1032E800C66AF1EE10FA2DD49FED1E6A67EE867A53
:1032F800B4EEE77AF1EE10FA2BD5F4EEE76AF1EEC8
:1033080010FA26D50029CCBF042005205DF8044B0F
:1033180070474B42404221461C46B1E76342404257
:103328000C461946ACE74942AAE74B4261421C46A3
:10333800A6E76442A4E70028CCBF002001205DF87E
:10334800044B7047002CCCBF022003205DF8044BCF
:1033580070474FF0FF30D9E723460C4619468FE7F0
:1033680000000010ABAA2A3F70B5284CDFED286A90
:1033780094F83C3894F80228D4F8245807EE103A08
:1033880094F83D3807EE903AB8EEC77AF8EEE77A47
:1033980027EE267A67EEA67A04EB4206BDEEC77AD8
:1033A8000132FDEEE77A02F00F01B6F8043884F82E
:1033B800021817EE102A17EE901AC31A2B448A42E5
:1033C800C4F8243882B0A6F804084FEA131312DCB4
:1033D80017EE101A17EE902A98B240F2FF35002324
:1033E800009539F043FE2A46002136F05BFDA4F82B
:1033F800500802B070BD9BB29942D4BF581A002041
:103408008242A6BF101A80B20020E6E7501F0020B3
:1034180014AE234138B503782DED0A8BD0ED01AAFF
:1034280070EE609A044669EEAAAAF0EE408AB0EE01
:10343800607A0D46B0EE41AAF0EE61BAB0EE42CA2B
:10344800B0EE629A002B61D1D0ED0B7A01F0010346
:10345800002B54D079EEE77AB0EE697A87EE8A0AC3
:10346800D4ED090A84ED0B7AF5EEC00AF1EE10FAF4
:1034780057DCD4ED032A20EE220A94ED0ABAD4EDE3
:10348800057A20EE099A3AEE8B8A68EEA78A38EE1A
:10349800098AB0EE4C1A38EE288AF0EE6B0AB0EEC4
:1034A800480A39F0F5FDD4ED027A94ED047A84EDFA
:1034B8000E9A69EEA77AF0EE4B6AEAEE276A6B0776
:1034C80030EE488AF0EE667A28EE078AC4ED0F8A55
:1034D800EAEE087A84ED0CBAC4ED0DAA84ED100A60
:1034E80008D5B0EECBBAB0EEE77AB4EECB7AF1EE0F
:1034F80010FA01D5C4ED0A7ABDEC0A8B38BD77EE17
:10350800677AF1EE677A87EE8A0AA9E711F0010374
:103518004FF000020CBFF0EE607AF0EE697A0270AC
:1035280096E7B0EE4A1A04F1180094ED038A36F0D3
:10353800F9F928EE000AA0E770B5394D394B2DEDA1
:10354800028B95ED008AB5EE408AF1EE10FA08EE8E
:10355800900A0C460DD1D3F8E8109FED332AB1F844
:10356800AE1008EE101AB8EEC88A28EE028A85ED69
:10357800008A93F825322D4D03EB830303EB830375
:10358800002A4FEA8301204614BF0426002639F09A
:103598008FFDF8EEE88A07EE900A9FED251A9FED59
:1035A800250AF8EEE70A28EE811A314605F51E705D
:1035B800F7EE002AB0EE482AF1EE481AFFF72AFF84
:1035C8001D4B9FED197A93F85828112AC0EE077AF7
:1035D80021D1C3F86848D5EDAB5A95EDAA6AD5ED67
:1035E800AC6A95EDAE7AFDEEE55ABDEEC66A15EE0B
:1035F800902AFDEEE66AC3F85C2816EE102ABDEEA6
:10360800C77AC3F8602816EE902AC3F8642817EE24
:10361800102AC3F86C28BDEC028BB0EE670A70BDA7
:10362800A4270020580E00200000C842E012002005
:10363800BD37863500000000501F0020064B93F868
:10364800991403F2647203F24C73002918BF1346ED
:1036580093ED020A704700BF580E0020F8B5384CA9
:10366800384FB4F81E62B4F81232FB812DED028B8C
:103678000D461EBBD7E90631C01A65EB01013EF0C5
:1036880003FFDFED317AB4F81432B4F81612B4F847
:103698001A2207EE100A67EE277A0B44FCEEE77A47
:1036A80017EE905A2B449A4239D3BDEC028BB4F8EA
:1036B8001C02A8422CBF00200120F8BDFFF7BEFF66
:1036C80007EE906AB8EEE78AF0EE408AB4EEC80AD0
:1036D800F1EE10FA1FDAD7E90631C01A65EB0101DD
:1036E8003EF0D2FEDFED187AB4F81432B4F81612B0
:1036F800B4F81A2207EE100A67EE277A0B44FCEE9C
:10370800E77A17EE905A2B44934210D8F4EEC88A01
:10371800F1EE10FAC9DBBDEC028B0120F8BD22F0F6
:103728007BFE0028C1D0BDEC028B0320F8BD22F03F
:1037380073FE0028F7D1FFF781FFF0EE408AE5E736
:10374800580E0020000000106F12833AF8B5214D82
:103758001D260C46074685F87C681BF055FB0020A3
:103768001BF0D6FA08201BF0D3FA0E201BF0D0FA73
:1037780030461BF0CDFA04201BF0CAFA04201BF0D7
:10378800C7FA00201BF0C4FA30201BF0C1FA002051
:103798001BF0BEFA20461BF0BBFA00201BF0B8FA5B
:1037A8001BF012FB05F508601BF014FA00B9F8BD10
:1037B80095F8803863B995F88138302B00D03BB93B
:1037C80095F8823823B995F883383B700120F8BD05
:1037D8000120F8BD501F00202DE9F04FB64CDFF84E
:1037E800E4922DED028B0022002304F54075C9E90F
:1037F80042239FEDB28A89B02E46A4F509680027B6
:103808000CE008EBC3032278D3F8903B02B163B90C
:103818002F601834A64205F108053ED094F901300E
:10382800002BEEDA2378002BF2D02B79DB07F0D4CB
:10383800A16820791AF01AFC21698246207B1AF0C7
:1038480015FCA2788346252AE2D8DFE812F0360074
:10385800040287018E016B0174017E0131002B0186
:103868003D0143010B024B0150015A0162014F0017
:1038780064006F00760084009200AB00BD00CD00AC
:10388800D300EB00F100F700FD0006011C01B401B4
:10389800BD01D401E1019501A40198F8A03C13B140
:1038A80098F8A23C9BB909B0BDEC028BBDE8F08F3B
:1038B800BAF1000FACD00028AAD0237D01222A60DB
:1038C800DA07A6D52B7943F001032B71A1E798F805
:1038D800A12CD8F8A40C402136F066FF002388F804
:1038E800A23C09B0BDEC028BBDE8F08F00FB0AF0EA
:1038F800734947F6FF7236F0D5FA8246227DC5F83D
:1039080000A0D30785D5BAF1000F82D02B7943F0F8
:1039180001032B717DE70028F0D09AFBF0F068498D
:1039280047F6FF7236F0BEFA8246E7E75FFA8AF09A
:1039380059461AF079FBDA46E0E75FFA8AF2104650
:1039480003921AF089FB039A0BEB000A51461046C2
:103958001AF06AFBD2E75FFA8AF2104603921AF06D
:103968007BFB039AA0EB0B0A514610461AF05CFB4E
:10397800C4E75FFA8AF0072800F279815FFA8BF3CF
:10398800003B98F8A12C18BF012301215B4253404A
:1039980001FA00F003405A40DA4688F8A12C88F86A
:1039A800A21CABE7D9F80831227D43F00103C9F81E
:1039B8000831D0074FF001032B607FF52AAF2B7930
:1039C80043F001032B7124E7D9F80821237DC9F8B6
:1039D8006CA142F00202C9F80821D9074FF0010290
:1039E8002A603FF56FAF14E7D9F80831227D43F01C
:1039F8000403DCE7D9F8742192453FF409AFD8F8FD
:103A0800900C04A931F0DEFD002849D050469DF8FD
:103A18001220012136F046FA8246C9F8740188F866
:103A2800960C6BE7D9F80831227D43F00803BEE70E
:103A3800D9F80831227D43F01003B8E7D9F80831E6
:103A4800227D43F02003B2E7D9F80821C9F884A100
:103A580042F04002C9F8082150E7D9F88821924578
:103A68003FF4D6AED8F8900C04A931F0ABFDB8B14C
:103A780050460522012136F015FA8246C9F8880118
:103A880088F8940C3AE7D9F88C2192453FF4C0AEF7
:103A9800D8F8900C04A931F095FD002840F0EC808E
:103AA8002860B6E6BAF1000F7FF407AF00287FF46C
:103AB80004AF2860ADE600BFE027002035FA8E3C51
:103AC8000080FFFF00000010BAEB000A18BF4FF09B
:103AD800010A13E7BAF1000F3FF4EFAE00283FF4F4
:103AE800ECAE95E6BAFA8AFA4FEA5A1A06E7BAF13C
:103AF800000F7FF4E2AE002840F0BB80D5F800A0AC
:103B0800FCE65044624947F6FF7236F0CBF982462C
:103B1800F4E6AAEB00005E4947F6FF7236F0C2F9F8
:103B28008246EBE640F234529245CCBF4FF0000A91
:103B38004FF0010AE2E6AAF23550B0F5A77F2CBF94
:103B48004FF0000A4FF0010AD8E640F2826292452F
:103B5800D4BF4FF0000A4FF0010ACFE68245D4BF28
:103B68004FF0000A4FF0010AC8E68245ACBF4FF09B
:103B7800000A4FF0010AC1E650465A46002136F0C5
:103B880091F94FF47A71002300915A46194639F099
:103B98006DFA8246B2E650464FF47A72002136F04A
:103BA80081F90023CDF800B019464FF47A7239F044
:103BB8005DFA8246A2E6D9F80821C9F890A142F038
:103BC8008002C9F8082199E607EE90AAB8EEE70A3C
:103BD800002820EE080A08BF4FF4FA7B39F01AFCD7
:103BE80007EE90BAF8EEE77A27EE800AFDEEC07A83
:103BF80017EE90AA82E607EE90AAB8EEE70A002828
:103C080020EE080A08BF4FF4FA7B39F0FDFAE7E71F
:103C180007EE90AAF8EEE78A002868EE888A08BFBF
:103C28004FF4FA7BB0EE680A39F0F4FBF0EE407A14
:103C3800B0EE680AF0EE678A39F0E6FAC8EE807AE4
:103C480007EE10BAB8EEC77A67EE877AFDEEE77A24
:103C580017EE90AA52E6AAEB000ABAFA8AFA4FEAD5
:103C68005A1A4BE65AEA00033FF427AED0E5DA4683
:103C780044E6C5F800A0CCE550460822012136F0FC
:103C880011F98246C9F88C0188F8950C36E600BF10
:103C98000080FFFF164991F8D42732B3F0B40646E6
:103CA80000200346074602E092F8D427DAB100EB79
:103CB80080002E2A4FEA400004D10133CA1832444A
:103CC80082F8D477CA18A0F1300592F8D427A2F167
:103CD8003004092C98BF50190E2B03F1010301EB96
:103CE8000302E1D90020F0BC70470020704700BFF4
:103CF800501F002070B5164DD5F8A83C1A791E3A09
:103D0800012A064605D91846002135F0AFFBD5F83B
:103D1800A83C002E0ADD0F4C264414F8011B184657
:103D280035F0A4FBA642D5F8A83CF6D118460021E8
:103D380035F09CFBB5F8D83CD5F84C14064AC5F8C4
:103D4800D01C01330021A5F8D83C516070BD00BFDC
:103D5800501F0020FC2B0020202C002010B50A4CFE
:103D680004F6CC500CF036FAD4F8D83DC01A39F025
:103D7800BBF90028B8BF404242F210739842D4BF42
:103D88000020012010BD00BF580E0020036813F06A
:103D9800400004D013F4057F14BF012000207047B1
:103DA800F8B5164C04F6E84204F55163C4F8FC244F
:103DB800C4F80035FEF788FC1223114A84F8D03481
:103DC80042F6F82604F59A6300274020C4F8F02448
:103DD800C3E902671BF09CFE024668B1FFF7D6FFF5
:103DE8004021054692F90400FEF72AFC0DB1C4F8FB
:103DF800500D003818BF0120F8BD00BF501F00202B
:103E0800B52F01080348044A00F62F0100F62E00DA
:103E1800C6E700BF501F0020400D03000348044AB6
:103E280000F62F0100F62E00BAE700BF501F002051
:103E3800A086010008490138002310F8012F222A22
:103E480004D001330F2B01F8012FF6D1034A134494
:103E5800002283F842207047990E0020580E002057
:103E680010B5084C82B00223C4F8543D01903DF0CF
:103E78005FFD0199C2B2D4F8580D02B0BDE81040F8
:103E880035F0D2BA501F00202A490023421E81F87B
:103E98005C3D043012F8013F33B3413B332B21D84A
:103EA800DFE803F01A202020203E35202020202C97
:103EB80020202020202020232020202020202020F7
:103EC800202020201A202020203E35202020202CB1
:103ED800202020202020202391F85C3D43F0080377
:103EE80081F85C3D8242D5D1704791F85C3D8242B1
:103EF80043F0010381F85C3DCCD1F5E791F85C3DD6
:103F0800824243F0100381F85C3DC3D1ECE791F89D
:103F18005C3D824243F0040381F85C3DBAD1E3E79B
:103F280091F85C3D824243F0020381F85C3DB1D1D7
:103F3800DAE700BF501F002070B5B14CD4F8606DAF
:103F48002EB13046FFF722FF002840F01F8194F879
:103F58006C0DFCF739FA94F8643D834205460ED09F
:103F6800002800F0238156B196F904000421FEF7D9
:103F780067FBC4F8680D10B1012384F8643D94F818
:103F88006D0DFCF721FA94F86E3D8342054610D07A
:103F9800002800F0D780D4F8703D53B193F904009D
:103FA8000821FEF74DFBC4F8740D10B1012384F805
:103FB8006E3DFCF721FAD4F8785D2DB12846FFF75D
:103FC800E5FE002840F0C78094F8880DFCF7FCF95E
:103FD80094F87C3D8342064621D0002800F0EF800B
:103FE800884B93F83330012B00F0FA80022B0CBF7A
:103FF800854A864AC4F8842D8DB12A7A002A40F071
:10400800E78095F904001021FEF71AFBC4F8800D2B
:1040180028B10022012384F8892D84F87C3D94F886
:104028008A0DFCF7D1F994F88B3D8342054626D0DA
:1040380000287ED0D4F88C3D5BB193F904004FF48E
:104048008071FEF7FDFAC4F8900D10B1012384F8D1
:104058008B3D6C4A6E4BB2F85A1092F85C5092F84D
:104068005D00A3F8161692F85E1092F85F2083F8A8
:104078001A5683F81E0683F81F1683F8202694F82C
:10408800940DFCF7A1F994F8953D834205461FD09D
:10409800002841D04FF4FA70FEF74EFAD4F8983D54
:1040A800B3B11A6802F41072B2F5107F10D093F908
:1040B80004004FF40071FEF7C3FAC4F8A00D38B13C
:1040C800504901220023C86184F8952D84F89C3D4D
:1040D80094F8A45D05B170BDD4F8A83D002BFAD0C2
:1040E80093F904004FF40021FEF7AAFAC4F8580D1A
:1040F8000028F0D0D4F84C344648C4F8B05D03F535
:104108001C531033C4F8AC3D84F8B45DFFF7BCFE13
:10411800012384F8A43D70BDD4F8A00D1BF0D2FC97
:10412800C4F8A05D84F8955D94F8A45D002DD2D103
:10413800D2E7D4F8900D1BF0C5FCC4F8905D84F864
:104148008B5D9CE7D4F8740D1BF0BCFCC4F8745D5F
:1041580084F86E5D2DE794F87C3D002B7FF45FAF0B
:10416800D4F8503D002B3FF45AAF264AC4F8803D9E
:1041780092F83330012B3ED0022B0CBF224B234B3D
:10418800C4F8843D012384F87C3D48E794F8643DF5
:10419800002B7FF4F4AED4F8503D002B3FF4EFAE83
:1041A8000122C4F8683D84F8642DE8E6D4F8680D67
:1041B8001BF088FCC4F8685D84F8645DDFE6D4F819
:1041C800800D1BF07FFCC4F8806D84F87C6D26E7B9
:1041D800022A09D0012A04BF0B4BC4F8843D10E71A
:1041E8000D4AC4F8842D07E7002B7FF40AAF0A4B69
:1041F800C4F8843D05E7084BC4F8843DC2E700BF16
:10420800501F0020580E0020FC0500200806002042
:10421800000000208E0E0020F005002070B5254C0F
:10422800064604F142003DF083FB94F842502B2DE2
:1042380038D0302D27D0382D2ED01F49002301E04B
:1042480011F8015F0C464DB30133102BF8D13246FB
:1042580006F11005134612F8011B222926D0AA429E
:10426800F8D1002820DDC0F101001918621C0133C3
:1042780001E08B4218D013F8014D12F8010D844269
:10428800F7D0002070BD94F84320A2F13101012934
:1042980003460DD9362A0BD00138CEE7002BF0D0D3
:1042A8004C1ED4E70538C8E7012070BD013BD8E7AC
:1042B800981EC2E7580E00209A0E00202DE9F04FF4
:1042C8002DED028B87B0884600AF164620B10378E3
:1042D800303B012B40F28B81DFF84093DFEDC88A39
:1042E8009FEDC88A98F80030002B3CD0C64C2EB100
:1042F8003268D4F84C349A4240F2C58394F8B55DDC
:10430800002D40F0C58294F8B80DC04B03EB400374
:10431800B3F810356BBB012384F8B83DBC4B1A6960
:1043280011061ED55A69920740F18A83B94AB2F834
:104338009C31D2F8EC204FF4F36113FB01F389FBB5
:104348000301DB17C3EB611310203021C7F81330CA
:10435800082338747974BB7438180024904788F897
:104368000040002EBED11C37BD46BDEC028BBDE817
:10437800F08F0130C0B2B3F58A6F84F8B80D00F041
:104388008D8127D8B3F5806F00F032826DD9B3F5EF
:10439800866F00F0118250D9B3F5886FE1D1DFF84C
:1043A80074A29AF82D30002BDBD0994ADAF8EC3059
:1043B800B2F9AC21C7F81320102040210422387428
:1043C8007974BA7438180024984788F80040002E89
:1043D80088D1C8E7B3F5006F00F03B8140F28B80CD
:1043E800B3F5046F00F01C816ED9B3F5116F00F0BE
:1043F8002482B3F5206FB4D1854BD3F8A8319A063F
:10440800AFD5854A834BD2ED057AD3F8EC3067EE09
:10441800A87A1021FCEEE77A002417EE902AC7F854
:1044280013200A2239747C74BA747818984788F86B
:104438000040002E7FF456AF95E7B3F5826F00F089
:10444800EB81B3F5846F8CD1714B1A69120688D54C
:104458005A69950740F1CF82D4F8502E6D4BC7F8B2
:10446800132010202021042242E0B3F5007F00F041
:104478007E816AD9B3F5047F7FF473AF644B1B69FF
:104488009D077FF56EAFDFF88CA19AF82E30002BD0
:1044980040F0B98294F8C63D012B0CBFB4F8D43D66
:1044A800B4F8D63DC7F8133010220221DAF8EC3000
:1044B8003A747A74B974B8180024984788F8004098
:1044C800002E7FF40FAF4EE7B3F5026F61D1504B6A
:1044D8001A6911067FF545AF5A69920740F1A38220
:1044E8004C4BD3F88C21C7F8132010202021082228
:1044F800D3F8EC3063E7B3F5E26F00F01A8150D9D6
:10450800B3F5E46F7FF42DAFDFF808A19AF82D30EA
:10451800002B7FF426AF3E4B93ED340A20EE080AB9
:1045280040F0AEFB102420210722C7F813003C748A
:104538003819DAF8EC307974BA740024984788F896
:104548000040002E7FF4CEAE0DE7B3F5807F00F07B
:10455800C780B3F5887F7FF404AF2D4BD3F8A8311B
:104568005B077FF5FEAEDFF8ACA09AF899140AF263
:104578004C720AF26473002908BF134693ED050ACA
:1045880040F07EFBDAF8EC20C7F813001023012175
:104598006CE1B3F5036F3FF4C1AE002E7FF4A2AE19
:1045A800E1E6B3F5C06F00F08A80B3F5E06F7FF401
:1045B800D8AE184D95F82D40002C7FF4D2AE144B90
:1045C80093ED320A20EE080A40F05AFB1021072228
:1045D800D5F8EC30C7F813007C743974BA747818BD
:1045E800984788F80040002E7FF47CAEBBE6013087
:1045F8000621FCF739F9044C84F8B50D6CE600BFC8
:10460800B80C473E0000C842501F0020F081040843
:1046180000000010580E0020302D00201F85EB519F
:10462800984B994AB3F9B031D2F8EC2003EB8303E5
:104638005B001020C7F813304021082338747974C0
:10464800BB743818904788F80050002E7FF44AAEA3
:1046580089E68C4B1A6915067FF583AE5A6994076B
:1046680040F10C82C30700F1F581DFF81CA2DAF8EB
:10467800842182EAE273A3EBE27303EB5303A9FB01
:104688000313DB08002AB8BF43F08043C7F8133090
:104698001021DAF8EC3000240822C3E6794B1A69B5
:1046A80015067FF55EAE5A69940740F1CE81764BC8
:1046B800B3F99E21C7F8132010205021D3E6DFF864
:1046C800C8A19AF83130002B40F0618114F024FC25
:1046D8000024DAF8EC30C7F8130010210622A1E60E
:1046E800684BD3F8A83159077FF53BAEDFF898A19E
:1046F8009AF89914DAF8EC200AF264730AF24C7A00
:10470800002908BF5346D3ED027AFCEEE77A102160
:1047180017EE900A00240123C7F8130039747C743B
:10472800BB747818904788F80040002E7FF4DAAD03
:1047380019E6554D95F82D40002C7FF412AE514BDB
:1047480093ED330A20EE080A40F09AFA1023072165
:10475800C7F81300D5F8EC203B747B74B974F818CB
:10476800904788F80040002E7FF4BCADFBE5454B30
:104778001B6918057FF5F5AD94F8C43D002B3FF48F
:10478800F0AD4149414AB1F9FE3D7D7482FB030217
:10479800DB17C3EBA2031BB210240220B874D1F8B4
:1047A800EC20C7F813303C743819904788F800504B
:1047B800002E7FF497ADD6E5334B93F82D20002AD1
:1047C8003FF4CFAD2F4AD3F8EC30B2F9AE21C7F899
:1047D8001320102230213A7404227974BA7407F134
:1047E8001000984788F80050002E7FF47BADBAE59A
:1047F800FBF796FD244BC7F8130010210422D3F8C9
:10480800EC307D743974BA747818984788F8005079
:10481800002E7FF467ADA6E51A4B1A6915067FF5D9
:10482800A0AD5A69940740F10681FBF76BFF164A61
:10483800C7F813001023042116E0124B1B699907CF
:104848007FF58FAD94F8B93D4BB194F8C62D012A88
:104858000CBFB4F8D42DB4F8D62DB2FBF3F30A4A42
:10486800C7F8133009211023D2F8EC203B747B746D
:10487800B974F8180024904788F80040002E7FF497
:1048880031AD70E500000010580E002067666666BE
:10489800DFF83CA207F108033B61DAF8189007F14A
:1048A8000E037B61D9F80020DAF810309A426E4680
:1048B80094F8B63D00F0828007F109023A615A1C6B
:1048C80084F8B62D03F00F030522D9F804B03B7223
:1048D80094461346D9F80010ABEB010BD01D5FFAD4
:1048E8008BFB20F00700DC45ADEB000D40F2D480D7
:1048F8005A46684643F0B5FBD9F800305B44C9F81E
:1049080000305A46694607F1100038F0F1F8DAF835
:104918001820DAF81030D9F80000117AC9F8040024
:10492800C21A4A40D2B28342C9F8003084F8B72D7F
:104938000AD00133C9F8003013F8011C984282EA02
:104948000102F6D184F8B72D3B69591C39611A70F8
:10495800D7E90432D21A012A08DD00215A1C3A612B
:104968001970D7E90432D21A012AF7DC07F10800D6
:10497800FBF724FE002500231C37B54684F8B55DF7
:1049880088F80030BD46BDEC028BBDE8F08F4F4A79
:10499800126912057FF5E5AC94F8C42D002A3FF49E
:1049A800E0AC012B00F08F80D4F8D83DC7F8133065
:1049B8001021DAF8EC300024062233E5B9F90C208E
:1049C800591C03F00F0343F01003002AB8BF43F04B
:1049D800200307F109023A613B72D9E9003B04223E
:1049E800ABEB030384F8B61D07F10A017B7239614A
:1049F800134694466EE71B6818077FF52DAD002E09
:104A08007FF470ACAFE494F8B93D002B3FF44AADA5
:104A180094F8C62D012A0CBFB4F8D42DB4F8D62DBD
:104A2800B2FBF3F33EE51B681B077FF559AD002E7B
:104A38007FF458AC97E41B6818077FF5F6AE90E44E
:104A48001B681B077FF572AC8BE41B6818077FF5A2
:104A58002EAE86E4DFF878A0DAF8882182EAE273DD
:104A6800A3EBE27303EB5303A9FB0313DB08002A50
:104A7800ACBF43F0004343F0404307E61B68190707
:104A88007FF5F0AD6DE400231C3788F80030BD4693
:104A9800BDEC028BBDE8F08F6846C7E9003243F0F1
:104AA800E0FAD9F800107A683B681144C9F8001098
:104AB80007F110001A46694638F01AF807F108009D
:104AC800FBF77CFD57E7DAF8003E6FE700000010BF
:104AD800580E00202DE9F043DFF8189199F8AC60E2
:104AE800012E83B002D003B0BDE8F083D9F80000EE
:104AF8000028F8D03D4C3E4FD4F84C340025013303
:104B0800019304F654688DF8035009E01B2B84F8D0
:104B18005C5E4AD00D2B5DD087F82166D9F800007D
:104B280003685B68984700284BD0002D49D1D9F815
:104B380000000368DB68984783B27E2B4DD097F856
:104B48002126002AEAD194F85C2E002ADED17D2B9A
:104B580008BF84F8606EE1D094F8602E2AB180F026
:104B68002003D8B284F8605E034694F85B2E062AC8
:104B78000CD8B4F85E1E04EB020C0B440132A4F806
:104B88005E3E8CF8540E84F85B2EC7E7B4F85E2EB0
:104B980087F821661344C3F3072252FA83F3A4F873
:104BA8005E3EFF2B08BF4546B8E7D9F8000003680A
:104BB8005B6898470028AFD18DF8036087F82166B5
:104BC800ACE7284601AA0DF10301FFF777FB03B014
:104BD800BDE8F083A4F85E5EA0E78DF8035084F882
:104BE8005B5E84F85C6E87F8215697E7501F0020BB
:104BF80000000020580E0020074A92F8991402F28B
:104C0800647302F24C72002908BF134603EB800359
:104C180093ED030A704700BF580E0020064B93F827
:104C2800AC200AB1002070470222C3F8EC0083F8D8
:104C3800AC200120704700BF580E0020D0B5164C9C
:104C480004F66463C4F8FC34FDF73EFD12231349EF
:104C5800134A84F8D03442F6F82604F59A630027FC
:104C68004020C3E90267C4F8F014C4F8F4241AF029
:104C78004FFF80B1402190F90400FDF7E1FC0146A7
:104C8800C4F8880E20B10748FFF7C8FF84F88C0ED7
:104C9800081E18BF0120D0BD501F00206DCF01088D
:104CA80011CA010815B7010810B50D4C94F8AC30BD
:104CB8000BB1002010BD20201AF02AFFC4F8B00064
:104CC80058B120211AF01AFF064B84F8AD000120D4
:104CD800C4F8EC3084F8AC0010BD012010BD00BF52
:104CE800580E0020D101000870B5104E96F8935E5A
:104CF800C2B0AC1D224606F69261684643F0B1F98F
:104D0800B6F8903E0DF804300DEB040208351B0A86
:104D18006C465370254414F8011BD6F8900D34F0F6
:104D2800A5FBAC42F7D142B070BD00BF501F0020B8
:104D38002DE9F04FD34CD44F93B004F57D6807F1BB
:104D48001805D4F8900D34F06BFB002800F08C8027
:104D5800D4F8900D34F05CFB94F8A33F002206468B
:104D680084F8A02F0A2B00F2FC87DFE813F0BF00BD
:104D7800BF009901710158013F0123010201DD00C3
:104D880080008000022E3246C04928BF022200253A
:104D980002A8ADF8085043F064F99DF80830012BDB
:104DA80040F03E82BA4A94F8D50F92F9C95D94F85A
:104DB800D61F94F8A62FADF820508DF822008DF854
:104DC8002310B44D089E84F8953E511C40F2FE40D5
:104DD80042F6FA4384F8942E84F8A61FA4F8920E9B
:104DE800C4F8986E291DA4F8963E04224FF6FF7069
:104DF80001E015F8012B424082EA0212D2B21309EF
:104E080083EA102343EA0223A94283EAC200F0D1CD
:104E1800A14DA4F8900E291D15F8012B82EA000374
:104E280083EA0312D2B2130983EA102383EA022326
:104E380083EAC20398B28D42A4F8900E1BB2EBD15C
:104E480083F0DD0282EA0212D2B2130983EA102348
:104E580083EA022383EAC2031BB2A4F8903EA4F8B3
:104E68009C3EFFF741FF012013B0BDE8F08F0A2BED
:104E780006D035F8182C83B2B3EB122F00F0298135
:104E880094F8A4AF05EB0A094FF4887239464046F6
:104E980009F80F6C43F0E5F819F80F1C19F8102CF5
:104EA80094F8A53F94F8A20F15F815CCB4F8A8EF1C
:104EB80085F82CA442EA012201330121A4F8D02F5D
:104EC800FE2E4FF0000285F82D3484F8D3CF85F8F4
:104ED8002B1484F8A21FA5F83204A5F830E484F84E
:104EE800A02F00F0A18184F8A31F2AE7FE2800F074
:104EF800FA8215F8156C94F8A41F94F8A52F94F865
:104F0800A2CFB4F8A8EF84F8D36F0132002085F857
:104F18002B3485F82C1485F82D24A5F830E4A5F851
:104F280032C484F8A20F0CE715F8113C5B4835F839
:104F380018CC94F8A41F184490F83C3583EA0C0365
:104F480083EA0313DBB21A0982EA1C2242EA03222B
:104F580082EAC3036A18D8B225F8183C864214BFFF
:104F68000A23092302F8106C15F8156C84F8A33F7E
:104F7800C3E794F8A41F6A18013102F8100C35F839
:104F880018CC15F8156C80EA0C0080EA0010C0B245
:104F9800020982EA1C22C9B242EA002282EAC0005F
:104FA800B14284F8A41F25F8180CA6D1082384F868
:104FB800A33FA2E735F8182C05F8110C504080EAF9
:104FC8000010C0B2030983EA122343EA002315F84C
:104FD800156C83EAC00025F8180C002E40F02E81CD
:104FE800082394F8A41F84F8A33F86E735F8182C03
:104FF80094F8A41F05F8120C564086EA0616F6B275
:10500800330983EA122343EA062383EAC606062302
:1050180025F8186C84F8A33F15F8156C6DE735F87A
:10502800182C94F8A41F05F8140C564086EA0616A6
:10503800F6B2330983EA122343EA062383EAC60653
:10504800032325F8186C84F8A33F15F8156C54E76A
:1050580035F8182C94F8A41F05F8130C564086EA66
:105068000616F6B2330983EA122343EA062383EAD3
:10507800C606052325F8186C84F8A33F15F8156CA7
:105088003BE700BF501F002030300020282F0020B1
:10509800580E0020E42D0020E82D0020F08104089F
:1050A80035F8181C05F8150C80EA010383EA031388
:1050B800DBB21A0982EA112242EA032282EAC30217
:1050C8000021042325F8182C84F8A41F84F8A33F92
:1050D80013E794F8A49F05EB0901012301F80F0CCD
:1050E8004FF488723946404684F8A03F84F8A33FBD
:1050F80042F0B7FFB4F8A83F15F8142C84F8A52F90
:105108000BB9A4F8AA3F01339BB20132A4F8A83F17
:10511800A5F8303494F8D71F15F8156C85F82D24A8
:10512800012394F8A22F85F82B34002385F82C94BA
:1051380084F8D36FA5F8322484F8A23F2D296FD8BC
:1051480001A353F821F000BF4B4D00082952000875
:10515800295200082952000829520008295200083B
:10516800295200082952000829520008295200082B
:10517800295200082952000829520008295200081B
:10518800295200082952000829520008295200080B
:1051980029520008295200082952000829520008FB
:1051A80029520008295200082952000829520008EB
:1051B80029520008295200082952000829520008DB
:1051C80029520008295200082952000829520008CB
:1051D80029520008295200082952000829520008BB
:1051E800295200080D5400080952000829520008E5
:1051F800295200088D4D00083D53000851520008FF
:10520800042E3246BD4928BF0422002501A8019575
:1052180042F027FF9DF80680B8F1010F00F0788171
:10522800002013B0BDE8F08F02214FF6FF7305F898
:10523800152C84F8A31F25F8183C82E5072394F859
:10524800A41F84F8A33F58E6022E3246AB4928BF74
:105258000222002502A8ADF8085042F002FF9DF88E
:105268000860012EDCD10AF031FE94F8D62F94F8AC
:10527800D53F8DF822508DF820308DF82120089ADE
:1052880094F8A63F9E4D84F8956E591C160C40F272
:10529800FE30A4F8982E42F6FA7284F8A61FA4F8F5
:1052A800920EA4F8962E84F89A6E84F8943E291DDE
:1052B80003224FF6FF7001E015F8012B424082EA05
:1052C8000212D2B2130983EA102343EA0223A94245
:1052D80083EAC200F0D18B4DA4F8900EE91C15F8B2
:1052E800013B434083EA0312D2B2130983EA102335
:1052F80083EA022383EAC20398B28D42A4F8900E8F
:105308001BB2ECD183F0990282EA0212D2B21309DD
:1053180083EA102383EA022383EAC20293B2190ABA
:1053280084F89B2EA4F8903E84F89C1EFFF7DCFCC2
:10533800012099E5042E3246704928BF0422002630
:1053480002A8029642F08DFE9DF80A30012B7FF4E8
:1053580067AFBDF808203C2A40F28E816A4A12687D
:10536800510740F1B08294F8D61F94F8D52F8DF8E4
:1053780022308DF820208DF82110089994F8A62F56
:105388005F4D84F8953E0B0C561C40F2FE3084F8B5
:105398009A3E42F6FA73A4F8981E84F8942EA4F85C
:1053A800920E84F8A66F291DA4F8963E03224FF6A4
:1053B800FF7001E015F8012B424082EA0212D2B2D6
:1053C800130983EA102343EA0223A94283EAC200AD
:1053D800F0D14C4DA4F8900EE91C15F8012B82EA87
:1053E800000383EA0312D2B2130983EA102383EA83
:1053F800022383EAC20398B28D42A4F8900E1BB22E
:10540800EBD17FE72522002108A842F052FE252E85
:1054180032463A4928BF252208A842F022FE9DF8C4
:105428004030012B7FF4FCAE374A1268520700F176
:105438007F819DF8442032B1BDF83E2022F004015E
:10544800102900F0DB8194F8D63F94F8D52F8DF819
:10545800093003238DF808208DF80A30029A94F851
:10546800A61FA4F8982E120C254D84F89A2E40F207
:10547800FE324E1C0120A4F8922E42F6FA7284F8ED
:10548800941E84F8950E84F8A66F291DA4F8962E0C
:105498004FF6FF7001E015F8013B434083EA031320
:1054A800DBB21A0982EA102040EA0320A94280EA06
:1054B800C300F0D1134DA4F8900EE91C15F8012B88
:1054C80082EA000383EA0312D2B2130983EA1023A3
:1054D80083EA022383EAC20398B28D42A4F8900EAD
:1054E8001BB2EBD10EE7094A94F8A41F45F8182C13
:1054F800022384F8A33F0026FFE400BF282F0020E2
:10550800E42D0020E82D002000000010FFFFFE0021
:10551800D44BBDF8046093F9C93D9E4280F22382C2
:10552800701CC0B202A90AF0DFFCDDED037A9FED22
:10553800CE6ADFEDCE5A9DF80820ADF83C60F8EE53
:10554800E76ADDED047A94F8D51F8DF84350B8EE7C
:10555800E77ADDED057A8DF84480F8EEE77A86EE95
:10556800865A042A4FF0000394F8D62F089315BFE3
:1055780003260226102014208DF84260ADF83E0064
:1055880009930A930B93C7EE066A8DF840108DF8BD
:1055980041200DF12009DFF8D8C2E64642F2FE5B51
:1055A80042F2FA7AACF1040725264FF6FF7587EE2A
:1055B800A57A8DED0C5ACDED0D6A8DED0E7AB9E810
:1055C8000F00AEE80F00B9E80F00AEE80F0099E849
:1055D800030094F8A63F4EF8040B5A1C84F8958EE5
:1055E8008EF8001084F8943E84F8A62FA4F892BE92
:1055F800A4F896AE01E017F8016B86EA050383EA82
:105608000313DBB21A0982EA152242EA0322BC45D7
:1056180082EAC305EFD19649A4F8905E01F125000E
:1056280011F8013B6B4083EA0313DBB21A0982EAE3
:10563800152282EA032282EAC3039DB28142A4F8BA
:10564800905E1BB2ECD183F0FE0383EA0313DBB256
:105658001A0982EA152282EA032282EAC3039AB26D
:10566800110A84F8BD3EA4F8902E84F8BE1EFFF7F8
:105678003BFB0120FFF7F8BB94F8D51F8DF82210EB
:1056880094F8D61F8DF8231094F8A61F794FADF81B
:105698002060481CC5F83424C5F8386440F2FE423E
:1056A800089D84F8953E42F6FA0384F8941E84F81F
:1056B800A60FA4F8922EC4F8985E391DA4F8963E59
:1056C80004224FF6FF7001E017F8012B424082EAEE
:1056D8000212D2B2130983EA102343EA0223B94221
:1056E80083EAC200F0D1624DA4F8900E291D15F886
:1056F800013B434083EA0312D2B2130983EA102321
:1057080083EA022383EAC20398B28D42A4F8900E7A
:105718001BB2ECD183F0E60383EA0313DBB21A0968
:1057280082EA102282EA032282EAC303FFF794BBCB
:1057380094F8D61F94F8D52F8DF80A308DF80820E4
:105748008DF80910029994F8A62F4A4D84F8953ED1
:105758000B0C561C40F2FE3084F89A3E42F6FA735F
:10576800A4F8981E84F8942EA4F8920E84F8A66FD4
:10577800291DA4F8963E03224FF6FF7001E015F8A4
:10578800012B424082EA0212D2B2130983EA1023A3
:1057980043EA0223A94283EAC200F0D1344DA4F8B7
:1057A800900EE91C15F8013B434083EA0312D2B27C
:1057B800130983EA102383EA022383EAC20398B217
:1057C8008D42A4F8900E1BB2ECD183F0990383EAC2
:1057D8000313DBB21A0982EA102282EA032282EA60
:1057E800C3039AB2110A84F89B3EA4F8902E84F859
:1057F8009C1EFFF779FA0120FFF736BB9DF842108F
:10580800032900F0FF80022902D1142A00F0028245
:1058180094F8D63F94F8D52F8DF8093002238DF8E7
:1058280008208DF80A30029B94F8A62F114DA4F891
:10583800983E1B0C511C012040F2FE3684F89A3E1B
:1058480042F6FA7384F8942E84F8A61F84F8950E0D
:10585800291DA4F8926EA4F8963E03224FF6FF7015
:105868000CE000BF580E00208096184B0000C8427C
:10587800E82D0020E42D002015F8012B424082EA93
:105888000212D2B2130983EA102343EA0223A9427F
:1058980083EAC200F0D1DA4DA4F8900EE91C15F89D
:1058A800013B434083EA0312D2B2130983EA10236F
:1058B80083EA022383EAC20398B28D42A4F8900EC9
:1058C8001BB2ECD11EE594F8D62F94F8D51F8DF8AD
:1058D800212004228DF822208DF82010089994F8B0
:1058E800A62FC84D84F8953E0B0C561C40F2FE308E
:1058F80084F89A3E42F6FA73A4F8981E84F8942E17
:10590800A4F8920E84F8A66F291DA4F8963E0322E7
:105918004FF6FF7001E015F8012B424082EA0212AF
:10592800D2B2130983EA102343EA0223A94283EA85
:10593800C200F0D1B24DA4F8900EE91C15F8012B65
:1059480082EA000383EA0312D2B2130983EA10231E
:1059580083EA022383EAC20398B28D42A4F8900E28
:105968001BB2EBD1CEE494F8D63F94F8D52F8DF83E
:1059780021300D238DF822308DF8202094F8A63F91
:10598800089AA04DA4F8982E591C160C40F2FE3027
:1059980042F6FA7284F8943E84F8A61FA4F8920E90
:1059A80084F8958E84F89A6E291DA4F8962E032300
:1059B8004FF6FF7001E015F8013B434083EA0313FB
:1059C800DBB21A0982EA102242EA0322A94282EAD9
:1059D800C300F0D18A4DA4F8900EE91C15F8013BDC
:1059E800434083EA0313DBB21A0982EA102282EAEF
:1059F800032282EAC30398B28D42A4F8900E1BB228
:105A0800ECD1E2E6D5F83814BDF83C00884240F005
:105A1800A7800130142AC5F8380408BF04239FED75
:105A28007A6ADDED0C6A9DED0D7ADDED0E7ADFED1B
:105A3800775AD5F834248DF8083066EE866A27EE52
:105A4800067A67EEA57AFDEEE66ABDEEC77AFDEE48
:105A5800E77A8242D4BFA52200220026C0B202A95A
:105A68008DF81E20CDED036A8DED047ACDED057A13
:105A78000696ADF81C600AF033FCD5F83824D5F842
:105A880034349A42C0F2D180614B93F8C83D002B60
:105A980000F0178194F8D62F94F8D53F8DF806605A
:105AA8008DF805208DF80430019B94F8A62F554DEC
:105AB800A4F8983E1B0C511C012040F2FE3684F8D5
:105AC8009A3E42F6FA7384F8A61F84F8950EA4F855
